:100000000C942A000C9447000C9447000C94470071
:100010000C9447000C9447000C9447000C94470044
:100020000C9447000C9447000C9447000C94470034
:100030000C9447000C9447000C9447000C94470024
:100040000C9447000C9447000C9447000C94470014
:100050000C94470011241FBECFE5D8E0DEBFCDBF12
:1000600010E0A0E6B0E0EAECFEE102C005900D92DF
:10007000A039B107D9F710E0A0E9B0E001C01D92A6
:10008000A239B107E1F70E94720E0C94630F0C9431
:100090000000EF92FF920F931F937B018C0120E0F1
:1000A00030E040E05FE40E94490388238CF0C801FF
:1000B000B70120E030E040E05FE40E94C1010E940F
:1000C000A9039B01AC01205030404040504806C07D
:1000D000C801B7010E94A9039B01AC01B901CA0183
:1000E0001F910F91FF90EF900895A0E0B0E0EBE733
:1000F000F0E00C942C0FDC012B01FA019C91923062
:1001000008F439C1EB018881823008F433C194309E
:1001100069F4843009F02FC111969C91119789815F
:10012000981709F428C1A0E6B0E025C1843009F48D
:1001300021C18230A9F4923009F01DC19A01AD01AC
:1001400088E0EA010990AE01E90109929E0181501F
:10015000C1F7E201898111969C918923818308C1AD
:10016000923009F407C112962D903C901397EB0141
:100170008A819B811496AD90BD90CD90DC901797AD
:10018000EC80FD800E811F819101281B390BB90184
:1001900037FF04C066277727621B730B6032710537
:1001A0000CF061C0121613066CF537014801062EDB
:1001B00004C096948794779467940A94D2F721E0C8
:1001C00030E040E050E004C0220F331F441F551FB1
:1001D0006A95D2F721503040404050402E213F21B7
:1001E00040235123211531054105510521F021E01E
:1001F00030E040E050E079018A01E628F72808293C
:1002000019293CC0232BD1F1260E371E350146019A
:10021000062E04C096948794779467940A94D2F734
:1002200021E030E040E050E004C0220F331F441FC3
:10023000551F6A95D2F721503040404050402A2146
:100240003B214C215D21211531054105510521F04E
:1002500021E030E040E050E059016A01A628B728CB
:10026000C828D9280BC0821593052CF01C01AA249C
:10027000BB24650103C0EE24FF24870111969C91E5
:10028000D20111968C91981709F445C0992339F041
:10029000A80197012A193B094C095D0906C0A6016E
:1002A00095012E193F09400B510B57FD08C01182D3
:1002B0003382228224833583468357831DC081E0A5
:1002C00081833382228288279927DC01821B930B4A
:1002D000A40BB50B84839583A683B7830DC0220F2F
:1002E000331F441F551F24833583468357838281E0
:1002F000938101979383828324813581468157813D
:10030000DA01C9010197A109B1098F5F9F4FAF4F72
:10031000BF4328F30BC0918333822282EA0CFB1C7B
:100320000C1D1D1DE482F5820683178383E0808304
:10033000248135814681578157FF1AC0C901AA27F8
:1003400097FDA095BA2F81709070A070B0705695EF
:10035000479537952795822B932BA42BB52B848318
:100360009583A683B7838281938101969383828349
:10037000DF0101C0D201CD01CDB7DEB7E2E10C94BF
:10038000480FA0E2B0E0E7ECF1E00C94380F69838D
:100390007A838B839C832D833E834F835887E9E048
:1003A000EE2EF12CEC0EFD1ECE010196B7010E943F
:1003B000D2048E010F5E1F4FCE010596B8010E9438
:1003C000D2048A8991E089278A8BC701B801AE01DE
:1003D000475E5F4F0E9475000E94FD03A096E6E015
:1003E0000C94540FA0E2B0E0E8EFF1E00C94380F69
:1003F00069837A838B839C832D833E834F835887C5
:10040000F9E0EF2EF12CEC0EFD1ECE010196B701A6
:100410000E94D2048E010F5E1F4FCE010596B801D7
:100420000E94D204C701B801AE01475E5F4F0E942F
:1004300075000E94FD03A096E6E00C94540FA0E224
:10044000B0E0E5E2F2E00C942C0F69837A838B83B1
:100450009C832D833E834F835887CE010196BE0136
:10046000675F7F4F0E94D204CE010596BE016F5E8A
:100470007F4F0E94D2049985923088F0898982301A
:10048000C8F0943019F4823051F404C0843029F457
:10049000923081F480E690E0C6C0923049F420E0CA
:1004A0009A858A89981321E02A87CE010996BBC0D4
:1004B000823049F420E09A858A89981321E02A8BBA
:1004C000CE014196B0C02D843E844F8458886D88FB
:1004D0007E888F88988CEE24FF248701AA24BB2471
:1004E000650140E050E060E070E0E0E0F0E0C10174
:1004F00081709070892BE9F0E60CF71C081D191D1E
:100500009A01AB012A0D3B1D4C1D5D1D80E090E062
:10051000A0E0B0E0E614F7040805190520F481E036
:1005200090E0A0E0B0E0BA01A901480F591F6A1F8E
:100530007B1FAA0CBB1CCC1CDD1C97FE08C081E0F5
:1005400090E0A0E0B0E0A82AB92ACA2ADB2A3196B6
:10055000E032F10549F0660C771C881C991C569412
:10056000479437942794C3CFFA85EA892B893C892D
:100570008B859C85280F391F2E5F3F4F17C0CA01FE
:1005800081709070892B61F016950795F794E79428
:1005900080E090E0A0E0B0E8E82AF92A0A2B1B2BC3
:1005A00076956795579547952F5F3F4F77FDE7CF36
:1005B0000CC0440F551F661F771F17FD4160EE0CDE
:1005C000FF1C001F111F21503040403090E05907A0
:1005D00090E0690790E4790760F32B8F3C8FDB0193
:1005E000CA018F779070A070B07080349105A1051A
:1005F000B10561F447FD0AC0E114F10401051105DC
:1006000029F0405C5F4F6F4F7F4F40781A8EFE1786
:1006100011F081E08A8F4D8F5E8F6F8F78A383E01A
:10062000898FCE0149960E94FD03A096E2E10C94C9
:10063000480FA8E1B0E0EFE1F3E00C94380F6983D4
:100640007A838B839C832D833E834F83588789E0F5
:10065000E82EF12CEC0EFD1ECE010196B7010E9492
:10066000D2048E010F5E1F4FCE010596B8010E9485
:10067000D2048985823040F08989823028F0C70110
:10068000B8010E944A0501C08FEF6896E6E00C941D
:10069000540FA8E1B0E0EFE4F3E00C94380F698365
:1006A0007A838B839C832D833E834F83588789E095
:1006B000E82EF12CEC0EFD1ECE010196B7010E9432
:1006C000D2048E010F5E1F4FCE010596B8010E9425
:1006D000D2048985823040F08989823028F0C701B0
:1006E000B8010E944A0501C08FEF6896E6E00C94BD
:1006F000540FA8E1B0E0EFE7F3E00C94380F698302
:100700007A838B839C832D833E834F83588789E034
:10071000E82EF12CEC0EFD1ECE010196B7010E94D1
:10072000D2048E010F5E1F4FCE010596B8010E94C4
:10073000D2048985823040F08989823028F0C7014F
:10074000B8010E944A0501C081E06896E6E00C9479
:10075000540FACE0B0E0EFEAF3E00C943C0F698397
:100760007A838B839C83CE010196BE016B5F7F4FA2
:100770000E94D2048D81823061F1823050F1843048
:1007800021F48E81882351F12EC02F81388537FDC9
:1007900020C06E812F3131051CF06623F9F023C093
:1007A0008EE190E0821B930B29853A854B855C8511
:1007B00004C056954795379527958A95D2F76623B5
:1007C000B1F050954095309521953F4F4F4F5F4F79
:1007D0000EC020E030E040E050E009C02FEF3FEFD6
:1007E0004FEF5FE704C020E030E040E050E8B9019F
:1007F000CA012C96E2E00C94580FDF92EF92FF9220
:100800000F931F93FC01E480F58006811781D1804E
:100810008081823048F480E090E0A0E1B0E0E82AF6
:10082000F92A0A2B1B2BA5C0843009F49FC0823003
:1008300021F4EE24FF24870105C0E114F104010531
:10084000110519F4E0E0F0E096C0628173819FEF3A
:10085000623879070CF05BC022E83FEF261B370BAC
:100860002A3131052CF020E030E040E050E02AC091
:10087000B801A701022E04C0769567955795479554
:100880000A94D2F781E090E0A0E0B0E004C0880FC5
:10089000991FAA1FBB1F2A95D2F70197A109B10979
:1008A0008E219F21A023B1230097A105B10521F03E
:1008B00081E090E0A0E0B0E09A01AB01282B392B59
:1008C0004A2B5B2BDA01C9018F779070A070B07052
:1008D00080349105A105B10539F427FF09C0205CDA
:1008E0003F4F4F4F5F4F04C0215C3F4F4F4F5F4F13
:1008F000E0E0F0E02030A0E03A07A0E04A07A0E402
:100900005A0710F0E1E0F0E079018A0127C0603871
:10091000710564F5FB01E158FF4FD801C7018F77DE
:100920009070A070B07080349105A105B10539F4C4
:10093000E7FE0DC080E490E0A0E0B0E004C08FE3EB
:1009400090E0A0E0B0E0E80EF91E0A1F1B1F17FFA1
:1009500005C016950795F794E794319687E01695AC
:100960000795F794E7948A95D1F705C0EE24FF2404
:100970008701EFEFF0E06E2F679566276795902F60
:100980009F77D794DD24D7948E2F8695492F462BB9
:10099000582F5D29B701CA011F910F91FF90EF9069
:1009A000DF900895FC01DB01408151812281622F9B
:1009B0006F7770E0221F2227221F9381892F880FD3
:1009C000822B282F30E0991F9927991F11969C930D
:1009D000119721153105A9F54115510561057105DD
:1009E00011F482E037C082E89FEF13969C938E93B8
:1009F00012979A01AB0167E0220F331F441F551F66
:100A00006A95D1F783E08C930DC0220F331F441FEA
:100A1000551F12968D919C911397019713969C9355
:100A20008E931297203080E0380780E0480780E4FA
:100A3000580758F314962D933D934D935C93179755
:100A400008952F3F310579F4411551056105710570
:100A500019F484E08C93089564FF03C081E08C93C3
:100A600012C01C9210C02F57304013963C932E9307
:100A7000129783E08C9387E0440F551F661F771F02
:100A80008A95D1F7706414964D935D936D937C9322
:100A9000179708951F93DC01FB019C91923008F495
:100AA00047C08081823008F443C0943051F41196DD
:100AB0001C91843099F58181682F70E0611B710968
:100AC0003FC0843021F0923031F48230B9F181811D
:100AD000882389F12DC011961C9111978230F1F075
:100AE00081811817D9F412962D913C911397828128
:100AF00093818217930794F028173907BCF0149656
:100B00008D919D910D90BC91A02D248135814681C0
:100B10005781281739074A075B0718F4112341F05A
:100B20000AC082179307A407B50740F4112319F0F0
:100B300061E070E005C06FEF7FEF02C060E070E041
:100B4000CB011F910895DF93CF93CDB7DEB72797E1
:100B50000FB6F894DEBF0FBECDBF9A8389836B8337
:100B60008B81882309F07EC0E981FA818381282F57
:100B700030E03F832E838E819F818130910569F122
:100B80002E813F81223031052CF48E819F81009788
:100B900069F0E5C02E813F8122303105A9F18E81B7
:100BA0009F818330910509F446C0D9C0AAE3B0E023
:100BB000EAE3F0E08081482FE981FA818281282FE1
:100BC00030E081E090E0022E02C0880F991F0A9465
:100BD000E2F7809584238C93C2C0A7E3B0E0E7E3FB
:100BE000F0E08081482FE981FA818281282F30E06E
:100BF00081E090E0022E02C0880F991F0A94E2F76C
:100C0000809584238C93ABC0A4E3B0E0E4E3F0E0F0
:100C10008081482FE981FA818281282F30E081E0AC
:100C200090E0022E02C0880F991F0A94E2F7809587
:100C300084238C9394C0A1E3B0E0E1E3F0E08081F1
:100C4000482FE981FA818281282F30E081E090E00D
:100C5000022E02C0880F991F0A94E2F78095842320
:100C60008C937DC08B81813009F079C0E981FA8154
:100C70008381282F30E03D832C838C819D818130BE
:100C8000910561F12C813D81223031052CF48C815C
:100C90009D81009769F063C02C813D812230310530
:100CA00099F18C819D818330910509F443C057C02F
:100CB000AAE3B0E0EAE3F0E08081482FE981FA811D
:100CC0008281282F30E081E090E0022E02C0880F60
:100CD000991F0A94E2F7842B8C9341C0A7E3B0E0FC
:100CE000E7E3F0E08081482FE981FA818281282FB3
:100CF00030E081E090E0022E02C0880F991F0A9434
:100D0000E2F7842B8C932BC0A4E3B0E0E4E3F0E0A3
:100D10008081482FE981FA818281282F30E081E0AB
:100D200090E0022E02C0880F991F0A94E2F7842BEC
:100D30008C9315C0A1E3B0E0E1E3F0E08081482F9F
:100D4000E981FA818281282F30E081E090E0022E53
:100D500002C0880F991F0A94E2F7842B8C93279680
:100D60000FB6F894DEBF0FBECDBFCF91DF910895CF
:100D7000DF93CF93CDB7DEB727970FB6F894DEBFDA
:100D80000FBECDBF9A8389836B838B81882309F043
:100D90007EC0E981FA818381282F30E03F832E8352
:100DA0008E819F818130910569F12E813F812230B2
:100DB00031052CF48E819F81009769F0E5C02E816A
:100DC0003F8122303105A9F18E819F8183309105C9
:100DD00009F446C0D9C0ABE3B0E0EBE3F0E08081BA
:100DE000482FE981FA818281282F30E081E090E06C
:100DF000022E02C0880F991F0A94E2F7809584237F
:100E00008C93C2C0A8E3B0E0E8E3F0E08081482F13
:100E1000E981FA818281282F30E081E090E0022E82
:100E200002C0880F991F0A94E2F7809584238C935F
:100E3000ABC0A5E3B0E0E5E3F0E08081482FE981B5
:100E4000FA818281282F30E081E090E0022E02C0FA
:100E5000880F991F0A94E2F7809584238C9394C09D
:100E6000A2E3B0E0E2E3F0E08081482FE981FA817B
:100E70008281282F30E081E090E0022E02C0880FAE
:100E8000991F0A94E2F7809584238C937DC08B810F
:100E9000813009F079C0E981FA818381282F30E01F
:100EA0003D832C838C819D818130910561F12C8162
:100EB0003D81223031052CF48C819D81009769F0B1
:100EC00063C02C813D812230310599F18C819D8157
:100ED0008330910509F443C057C0ABE3B0E0EBE3C6
:100EE000F0E08081482FE981FA818281282F30E06B
:100EF00081E090E0022E02C0880F991F0A94E2F769
:100F0000842B8C9341C0A8E3B0E0E8E3F0E080815B
:100F1000482FE981FA818281282F30E081E090E03A
:100F2000022E02C0880F991F0A94E2F7842B8C933B
:100F30002BC0A5E3B0E0E5E3F0E08081482FE98134
:100F4000FA818281282F30E081E090E0022E02C0F9
:100F5000880F991F0A94E2F7842B8C9315C0A2E3A3
:100F6000B0E0E2E3F0E08081482FE981FA818281FC
:100F7000282F30E081E090E0022E02C0880F991FF8
:100F80000A94E2F7842B8C9327960FB6F894DEBF71
:100F90000FBECDBFCF91DF910895DF93CF9300D0E7
:100FA00000D00F92CDB7DEB79B838A831982EA8186
:100FB000FB818381282F30E03D832C834C815D8130
:100FC0004130510559F18C819D818230910534F475
:100FD0002C813D812115310569F05BC04C815D811B
:100FE0004230510579F18C819D818330910509F45E
:100FF0003DC04FC0E9E3F0E08081282F30E0EA8176
:10100000FB818281882F90E0A90102C05595479508
:101010008A95E2F7CA01817089833BC0E6E3F0E07C
:101020008081282F30E0EA81FB818281882F90E047
:10103000A90102C0559547958A95E2F7CA018170CA
:10104000898327C0E3E3F0E08081282F30E0EA8144
:10105000FB818281882F90E0A90102C055954795B8
:101060008A95E2F7CA018170898313C0E0E3F0E05A
:101070008081282F30E0EA81FB818281882F90E0F7
:10108000A90102C0559547958A95E2F7CA0181707A
:10109000898389810F900F900F900F900F90CF91BF
:1010A000DF910895DF93CF9300D0CDB7DEB79A8359
:1010B0008983E981FA81208189819A81622F0E9446
:1010C000A305E981FA81218189819A81622F0E9499
:1010D000B8060F900F90CF91DF910895DF93CF93D3
:1010E00000D000D0CDB7DEB79A838983E981FA8139
:1010F0008381282F30E03C832B838B819C8181303E
:10110000910561F12B813C81223031052CF48B81DA
:101110009C81009769F063C02B813C8122303105AE
:1011200099F18B819C818330910509F443C057C0AC
:10113000ABE3B0E0EBE3F0E08081482FE981FA8196
:101140008281282F30E081E090E0022E02C0880FDB
:10115000991F0A94E2F784278C9341C0A8E3B0E07A
:10116000E8E3F0E08081482FE981FA818281282F2D
:1011700030E081E090E0022E02C0880F991F0A94AF
:10118000E2F784278C932BC0A5E3B0E0E5E3F0E021
:101190008081482FE981FA818281282F30E081E027
:1011A00090E0022E02C0880F991F0A94E2F784276C
:1011B0008C9315C0A2E3B0E0E2E3F0E08081482F19
:1011C000E981FA818281282F30E081E090E0022ECF
:1011D00002C0880F991F0A94E2F784278C930F901E
:1011E0000F900F900F90CF91DF910895DF93CF93E1
:1011F00000D000D0CDB7DEB789836A838981282FDC
:1012000030E03C832B838B819C8181309105D1F030
:101210002B813C81223031052CF48B819C810097FD
:1012200061F01EC02B813C812230310581F08B8121
:101230009C818330910581F013C0EAE3F0E08A815C
:1012400080830EC0E7E3F0E08A81808309C0E4E395
:10125000F0E08A81808304C0E1E3F0E08A8180834A
:101260000F900F900F900F90CF91DF910895DF9323
:10127000CF9300D000D0CDB7DEB789836A83898150
:10128000282F30E03C832B838B819C81813091051A
:10129000D1F02B813C81223031052CF48B819C8153
:1012A000009761F01EC02B813C812230310581F016
:1012B0008B819C818330910581F013C0EBE3F0E0DA
:1012C0008A8180830EC0E8E3F0E08A81808309C0D0
:1012D000E5E3F0E08A81808304C0E2E3F0E08A8104
:1012E00080830F900F900F900F90CF91DF91089512
:1012F000DF93CF9300D000D0CDB7DEB78A831982B9
:101300008A81282F30E03C832B838B819C81813024
:101310009105D1F02B813C81223031052CF48B8159
:101320009C81009761F01EC02B813C8122303105E9
:1013300081F08B819C818330910581F013C0E9E3BA
:10134000F0E0808189830EC0E6E3F0E0808189834C
:1013500009C0E3E3F0E08081898304C0E0E3F0E0CA
:101360008081898389810F900F900F900F90CF918A
:10137000DF910895DF93CF9300D00F92CDB7DEB702
:1013800089836A834B8389816A810E94F6088981F7
:101390006B810E9437090F900F900F90CF91DF91D2
:1013A0000895DF93CF9300D00F92CDB7DEB7898336
:1013B0008981282F30E03B832A838A819B81813079
:1013C0009105E9F02A813B81223031052CF48A8194
:1013D0009B81009761F02AC02A813B812230310530
:1013E000B1F08A819B8183309105C9F01FC0ABE3C6
:1013F000B0E0EBE3F0E0808180958C9317C0A8E328
:10140000B0E0E8E3F0E0808180958C930FC0A5E325
:10141000B0E0E5E3F0E0808180958C9307C0A2E323
:10142000B0E0E2E3F0E0808180958C930F900F9024
:101430000F90CF91DF910895DF93CF9300D000D02C
:10144000CDB7DEB789836A838A818295807F8A835C
:101450008981282F30E03C832B838B819C818130D4
:10146000910529F12B813C81223031052CF48B81AF
:101470009C81009761F04AC02B813C81223031056C
:1014800031F18B819C818330910589F13FC0AAE3C2
:10149000B0E0EAE3F0E080818F708C93AAE3B0E0E3
:1014A000EAE3F0E090818A81892B8C932FC0A7E337
:1014B000B0E0E7E3F0E080818F708C93A7E3B0E0C9
:1014C000E7E3F0E090818A81892B8C931FC0A4E32D
:1014D000B0E0E4E3F0E080818F708C93A4E3B0E0AF
:1014E000E4E3F0E090818A81892B8C930FC0A1E323
:1014F000B0E0E1E3F0E080818F708C93A1E3B0E095
:10150000E1E3F0E090818A81892B8C930F900F901A
:101510000F900F90CF91DF910895DF93CF9300D07C
:1015200000D0CDB7DEB789836A838A818295807FB8
:101530008A838981282F30E03C832B838B819C8197
:101540008130910529F12B813C81223031052CF429
:101550008B819C81009761F04AC02B813C812230B5
:10156000310531F18B819C818330910589F13FC038
:10157000ABE3B0E0EBE3F0E080818F708C93ABE302
:10158000B0E0EBE3F0E090818A81892B8C932FC04F
:10159000A8E3B0E0E8E3F0E080818F708C93A8E3EB
:1015A000B0E0E8E3F0E090818A81892B8C931FC042
:1015B000A5E3B0E0E5E3F0E080818F708C93A5E3D4
:1015C000B0E0E5E3F0E090818A81892B8C930FC035
:1015D000A2E3B0E0E2E3F0E080818F708C93A2E3BD
:1015E000B0E0E2E3F0E090818A81892B8C930F9048
:1015F0000F900F900F90CF91DF910895DF93CF93CD
:1016000000D000D0CDB7DEB78A8319828A81282F17
:1016100030E03C832B838B819C8181309105D9F014
:101620002B813C81223031052CF48B819C810097E9
:1016300061F022C02B813C812230310591F08B81F9
:101640009C818330910599F017C0E9E3F0E0808137
:10165000807F898311C0E6E3F0E08081807F898309
:101660000BC0E3E3F0E08081807F898305C0E0E385
:10167000F0E08081807F8983898182958F70898362
:1016800089810F900F900F900F90CF91DF91089567
:10169000DF93CF9300D00F92CDB7DEB789836A83F3
:1016A0004B8389816A810E941C0A89816B810E9417
:1016B0008D0A0F900F900F90CF91DF910895DF93D7
:1016C000CF9300D00F92CDB7DEB789838981282FC1
:1016D00030E03B832A838A819B8181309105F1F040
:1016E0002A813B81223031052CF48A819B8100972D
:1016F00061F02EC02A813B8122303105C1F08A8100
:101700009B8183309105E1F023C0ABE3B0E0EBE3D4
:10171000F0E0908180EF89278C931AC0A8E3B0E0B5
:10172000E8E3F0E0908180EF89278C9311C0A5E376
:10173000B0E0E5E3F0E0908180EF89278C9308C06A
:10174000A2E3B0E0E2E3F0E0908180EF89278C93A0
:101750000F900F900F90CF91DF910895DF93CF936B
:1017600000D000D0CDB7DEB789836A838A818F70BD
:101770008A838981282F30E03C832B838B819C8155
:101780008130910529F12B813C81223031052CF4E7
:101790008B819C81009761F04AC02B813C81223073
:1017A000310531F18B819C818330910589F13FC0F6
:1017B000AAE3B0E0EAE3F0E08081807F8C93AAE3C3
:1017C000B0E0EAE3F0E090818A81892B8C932FC00E
:1017D000A7E3B0E0E7E3F0E08081807F8C93A7E3AC
:1017E000B0E0E7E3F0E090818A81892B8C931FC001
:1017F000A4E3B0E0E4E3F0E08081807F8C93A4E395
:10180000B0E0E4E3F0E090818A81892B8C930FC0F3
:10181000A1E3B0E0E1E3F0E08081807F8C93A1E37D
:10182000B0E0E1E3F0E090818A81892B8C930F9006
:101830000F900F900F90CF91DF910895DF93CF938A
:1018400000D000D0CDB7DEB789836A838A818F70DC
:101850008A838981282F30E03C832B838B819C8174
:101860008130910529F12B813C81223031052CF406
:101870008B819C81009761F04AC02B813C81223092
:10188000310531F18B819C818330910589F13FC015
:10189000ABE3B0E0EBE3F0E08081807F8C93ABE3DF
:1018A000B0E0EBE3F0E090818A81892B8C932FC02C
:1018B000A8E3B0E0E8E3F0E08081807F8C93A8E3C8
:1018C000B0E0E8E3F0E090818A81892B8C931FC01F
:1018D000A5E3B0E0E5E3F0E08081807F8C93A5E3B1
:1018E000B0E0E5E3F0E090818A81892B8C930FC012
:1018F000A2E3B0E0E2E3F0E08081807F8C93A2E39A
:10190000B0E0E2E3F0E090818A81892B8C930F9024
:101910000F900F900F90CF91DF910895DF93CF93A9
:1019200000D000D0CDB7DEB78A8319828A81282FF4
:1019300030E03C832B838B819C8181309105D9F0F1
:101940002B813C81223031052CF48B819C810097C6
:1019500061F022C02B813C812230310591F08B81D6
:101960009C818330910599F017C0E9E3F0E0808114
:101970008F70898311C0E6E3F0E080818F708983E6
:101980000BC0E3E3F0E080818F70898305C0E0E362
:10199000F0E080818F70898389810F900F900F9084
:1019A0000F90CF91DF910895DF93CF9300D00F92E6
:1019B000CDB7DEB789836A834B8389816A810E94B0
:1019C000AE0B89816B810E941E0C0F900F900F90BF
:1019D000CF91DF910895DF93CF9300D00F92CDB7D1
:1019E000DEB789838981282F30E03B832A838A816F
:1019F0009B8181309105F1F02A813B8122303105B4
:101A00002CF48A819B81009761F02EC02A813B8152
:101A100022303105C1F08A819B8183309105E1F04C
:101A200023C0ABE3B0E0EBE3F0E090818FE08927E7
:101A30008C931AC0A8E3B0E0E8E3F0E090818FE077
:101A400089278C9311C0A5E3B0E0E5E3F0E0908135
:101A50008FE089278C9308C0A2E3B0E0E2E3F0E0D6
:101A600090818FE089278C930F900F900F90CF91EA
:101A7000DF910895DF93CF9300D0CDB7DEB79A837F
:101A8000898389819A810E945208E981FA8187813C
:101A9000882341F4E981FA8184816FEF40E00E945C
:101AA000BA091EC0E981FA8187818130C9F4E981D0
:101AB000FA818581882341F4E981FA8184816FE08C
:101AC00040E00E94480B0CC0E981FA818581813099
:101AD00039F4E981FA8184816FE040E00E94D40CFE
:101AE0000F900F90CF91DF910895DF93CF9300D0A7
:101AF0000F92CDB7DEB79A8389836B83E981FA8130
:101B00008781882341F5E981FA818681882379F4E8
:101B1000E981FA8124818B81882F90E0FC01E859CA
:101B2000FF4F9081822F692F0E94370930C0E981D1
:101B3000FA818681813059F5E981FA8124818B818E
:101B4000882F90E0FC01EE58FF4F9081822F692F83
:101B50000E9437091CC0E981FA8187818130B9F47C
:101B6000E981FA818581882339F4E981FA818481C8
:101B70006B810E948D0A0BC0E981FA8185818130D9
:101B800031F4E981FA8184816B810E941E0C0F90EF
:101B90000F900F90CF91DF910895DF93CF9300D0F6
:101BA000CDB7DEB79A838983E981FA81868188235C
:101BB00031F489819A8160E00E94B8060AC0E98107
:101BC000FA818681813029F489819A8161E00E94BD
:101BD000B8060F900F90CF91DF910895DF93CF93C8
:101BE00000D0CDB7DEB79A838983E981FA818681F7
:101BF000882331F489819A8161E00E94B8060AC085
:101C0000E981FA818681813029F489819A8160E0B5
:101C10000E94B8060F900F90CF91DF910895DF9347
:101C2000CF9300D0CDB7DEB79A83898389819A811B
:101C300061E00E94A3050F900F90CF91DF9108956E
:101C4000DF93CF9300D0CDB7DEB79A838983E98144
:101C5000FA818481813031F489819A8161E00E9426
:101C6000B8060AC0E981FA818481882329F4898130
:101C70009A8160E00E94B8060F900F90CF91DF919B
:101C80000895DF93CF9300D0CDB7DEB79A838983D1
:101C9000E981FA818481813031F489819A8160E01F
:101CA0000E94B8060AC0E981FA818481882329F458
:101CB00089819A8161E00E94B8060F900F90CF91C0
:101CC000DF910895DF93CF9300D0CDB7DEB79A832D
:101CD000898389819A810E946E080F900F90CF911D
:101CE000DF910895DF93CF93CDB7DEB72E970FB670
:101CF000F894DEBF0FBECDBF8CE790E00E943A0D96
:101D000084E890E00E943A0D8CE890E00E94CD07B4
:101D100080939000809191009AE0692F0E94200F9B
:101D2000892F282F8CE790E0622F0E94750D8091FB
:101D300091009AE0692F0E94200F282F84E890E0FC
:101D4000622F0E94750D80E090E0A8E4B3E48B87D9
:101D50009C87AD87BE876B857C858D859E8520E0C1
:101D600030E04AE753E40E941F02DC01CB018F837D
:101D70009887A987BA876F81788589859A8520E0B9
:101D800030E040E85FE30E94790388232CF481E08F
:101D900090E09E838D833FC06F81788589859A8589
:101DA00020E03FEF4FE757E40E94190318164CF567
:101DB0006B857C858D859E8520E030E040E251E496
:101DC0000E941F02DC01CB01BC01CD010E94490031
:101DD000DC01CB019E838D830FC089E190E09C8361
:101DE0008B838B819C810197F1F79C838B838D8101
:101DF0009E8101979E838D838D819E81009769F7D7
:101E000014C06F81788589859A850E944900DC011C
:101E1000CB019E838D838D819E819A838983898165
:101E20009A810197F1F79A8389838091900081309C
:101E300009F06ACF809191008F5F8093910064CF09
:101E4000991B79E004C0991F961708F0961B881F0C
:101E50007A95C9F7809508952F923F924F925F929D
:101E60006F927F928F929F92AF92BF92CF92DF92AA
:101E7000EF92FF920F931F93CF93DF93CDB7DEB70F
:101E8000CA1BDB0B0FB6F894DEBF0FBECDBF0994A3
:101E90002A88398848885F846E847D848C849B84FA
:101EA000AA84B984C884DF80EE80FD800C811B8108
:101EB000AA81B981CE0FD11D0FB6F894DEBF0FBE37
:0A1EC000CDBFED010895F894FFCFA7
:101ECA000000000000000000BF065BCFE6EDFC0743
:101EDA00FFE740F9A430191203F8001801000001C5
:101EEA0002010101010001010001010100000402D7
:00000001FF
