:100000000C942A000C9447000C9447000C94470071
:100010000C9447000C9447000C9447000C94470044
:100020000C9447000C9447000C9447000C94470034
:100030000C9447000C9447000C9447000C94470024
:100040000C9447000C9447000C9447000C94470014
:100050000C94470011241FBECFE5D8E0DEBFCDBF12
:1000600010E0A0E6B0E0E4E7F7E002C005900D92F2
:10007000A837B107D9F710E0A8E7B0E001C01D929A
:10008000A937B107E1F70E9496030C94B8030C94CA
:100090000000FC01662309F03FC083818130A9F094
:1000A000813030F08230F1F0833009F070C027C029
:1000B0002AB381E090E0028002C0880F991F0A9461
:1000C000E2F7809582238ABB089527B381E090E010
:1000D000028002C0880F991F0A94E2F7809582235C
:1000E00087BB089524B381E090E0028002C0880FAE
:1000F000991F0A94E2F78095822384BB089521B367
:1001000081E090E0028002C0880F991F0A94E2F714
:100110008095822381BB08956130C9F58381813048
:1001200099F0813028F08230D9F0833081F524C0F5
:100130002AB381E090E0028002C0880F991F0A94E0
:10014000E2F7282B2ABB089527B381E090E00280D4
:1001500002C0880F991F0A94E2F7282B27BB089545
:1001600024B381E090E0028002C0880F991F0A94B6
:10017000E2F7282B24BB089521B381E090E00280B0
:1001800002C0880F991F0A94E2F7282B21BB08951B
:10019000FC01662309F03FC083818130A9F08130E2
:1001A00030F08230F1F0833009F070C027C02BB3FB
:1001B00081E090E0028002C0880F991F0A94E2F764
:1001C000809582238BBB089528B381E090E0028064
:1001D00002C0880F991F0A94E2F78095822388BB9A
:1001E000089525B381E090E0028002C0880F991F36
:1001F0000A94E2F78095822385BB089522B381E0BB
:1002000090E0028002C0880F991F0A94E2F780955F
:10021000822382BB08956130C9F58381813099F0D2
:10022000813028F08230D9F0833081F524C02BB39F
:1002300081E090E0028002C0880F991F0A94E2F7E3
:10024000282B2BBB089528B381E090E0028002C0E8
:10025000880F991F0A94E2F7282B28BB089525B32D
:1002600081E090E0028002C0880F991F0A94E2F7B3
:10027000282B25BB089522B381E090E0028002C0C4
:10028000880F991F0A94E2F7282B22BB0895FC01DE
:100290008381813051F0813030F0823041F0833001
:1002A00081F080E0089589B303C086B301C083B3B1
:1002B00090E0028002C0959587950A94E2F78170DC
:1002C000089580B390E0028002C0959587950A94C6
:1002D000E2F7817008950F931F938C01F8016081FC
:1002E0000E944900C801F80161810E94C8001F9165
:1002F0000F910895FC018381813099F0813028F0BD
:100300008230D9F0833081F524C02BB381E090E0B6
:10031000028002C0880F991F0A94E2F728272BBB9E
:10032000089528B381E090E0028002C0880F991FF1
:100330000A94E2F7282728BB089525B381E090E0CE
:10034000028002C0880F991F0A94E2F7282725BB74
:10035000089522B381E090E0028002C0880F991FC7
:100360000A94E2F7282722BB0895813049F08130B2
:1003700028F0823039F0833041F406C06ABB08951A
:1003800067BB089564BB089561BB0895813049F04F
:10039000813028F0823039F0833041F406C06BBBE5
:1003A000089568BB089565BB089562BB08958130C8
:1003B00051F0813030F0823041F0833041F080E004
:1003C000089589B3089586B3089583B3089580B3DB
:1003D00008950F931F93182F042F0E94B501812FAA
:1003E000602F0E94C6011F910F910895813059F02E
:1003F000813028F0823059F0833081F40CC08BB307
:1004000080958BBB089588B3809588BB089585B38C
:10041000809585BB089582B3809582BB08956295CF
:10042000607F813071F0813028F0823089F0833034
:10043000E1F415C08AB38F708ABB8AB3682B6ABB9C
:10044000089587B38F7087BB87B3682B67BB089508
:1004500084B38F7084BB84B3682B64BB089581B36D
:100460008F7081BB81B3682B61BB08956295607FFB
:10047000813071F0813028F0823089F08330E1F4EE
:1004800015C08BB38F708BBB8BB3682B6BBB089580
:1004900088B38F7088BB88B3682B68BB089585B319
:1004A0008F7085BB85B3682B65BB089582B38F7051
:1004B00082BB82B3682B62BB0895813051F08130DA
:1004C00030F0823041F0833041F080E008C089B3E1
:1004D00005C086B303C083B301C080B3807F82951B
:1004E0008F7008950F931F93182F042F0E940F02EF
:1004F000812F602F0E9436021F910F910895813045
:1005000061F0813028F0823069F08330A1F40FC0AF
:100510008BB390EF89278BBB089588B390EF892721
:1005200088BB089585B390EF892785BB089582B372
:1005300090EF892782BB08956F70813071F0813010
:1005400028F0823089F08330E1F415C08AB3807FCF
:100550008ABB8AB3682B6ABB089587B3807F87BB49
:1005600087B3682B67BB089584B3807F84BB84B353
:10057000682B64BB089581B3807F81BB81B3682BF6
:1005800061BB08956F70813071F0813028F0823046
:1005900089F08330E1F415C08BB3807F8BBB8BB3C4
:1005A000682B6BBB089588B3807F88BB88B3682BAA
:1005B00068BB089585B3807F85BB85B3682B65BB19
:1005C000089582B3807F82BB82B3682B62BB08959B
:1005D000813051F0813030F0823041F0833049F089
:1005E00080E0089589B303C086B301C083B38F70E0
:1005F000089580B38F7008950F931F93182F042FC1
:100600000E949C02812F602F0E94C2021F910F91B5
:100610000895813061F0813028F0823069F08330B4
:10062000A1F40FC08BB39FE089278BBB089588B3DB
:100630009FE0892788BB089585B39FE0892785BB04
:10064000089582B39FE0892782BB0895DC01139649
:100650008C9113978823A9F412968C911297882372
:1006600029F4E62FF0E0E05AFF4F06C08130C9F4CC
:10067000E62FF0E0E659FF4F8C9160810E94C601A1
:100680000895813071F411968C911197882321F48B
:100690008C910E9436020895813019F48C910E9449
:1006A000C2020895FC018381882331F480816FEFB9
:1006B00040E00E94E9010895813081F4818188231E
:1006C00031F4808160EF40E00E9472020895813031
:1006D00029F480816FE040E00E94FC0208950E94AE
:1006E0007A010895FC018481813029F4CF0160E012
:1006F0000E94C8000895882321F4CF0161E00E9480
:10070000C8000895FC018481813029F4CF0161E0A3
:100710000E94C8000895882321F4CF0160E00E9460
:10072000C800089561E00E9449000895CF93DF93C7
:1007300084E790E00E945203C9E1D0E08091780004
:100740008A3090F484E790E065E00E94260380916F
:1007500078008F5F8093780088E893E1FE013197FD
:10076000F1F70197D9F7EACF8F5F80937800E6CF52
:04077000F894FFCF2B
:10077400BF065BCFE6EDFC07FFE740F9A430191292
:0807840003F800180200000058
:00000001FF
